:020000040800F2
:1000000000200020150300086503000865030008B0
:1000100000000000000000000000000000000000E0
:100020000000000000000000000000006503000860
:1000300000000000000000006503000865030008E0
:1000400065030008650300086503000865030008F0
:1000500065030008650300086503000865030008E0
:1000600065030008650300086503000865030008D0
:1000700065030008650300086503000865030008C0
:100080006503000865030008000000006503000820
:1000900065030008650300086503000865030008A0
:1000A0006503000865030008650300086503000890
:1000B0006503000800000000650300080000000060
:1000C00010B5064C2378002B07D1054B002B02D02E
:1000D000044800E000BF0123237010BD500400203D
:1000E000000000002406000808B5084B002B03D0D0
:1000F0000748084900E000BF07480368002B00D10B
:1001000008BD064B002BFBD09847F9E70000000024
:1001100024060008540400204C04002000000000C5
:1001200080B500AF1A4B1A4A126801210A431A60BF
:10013000174B174A526817490A405A60144B144A21
:10014000126815490A401A60114B114A1268134986
:100150000A401A600E4B0E4A526811490A405A6012
:100160000B4B0B4AD26A0F218A43DA62084B084ACA
:10017000126B0C490A401A63054B054A526B012168
:100180008A435A63024B00229A60BD4680BDC04636
:10019000001002400CB8FFF8FFFFF6FEFFFFFBFF68
:1001A000FFFFC0FF2CFEFFFF80B584B000AF00232F
:1001B000FB600023BB6000237B6000233B602B4B74
:1001C0005B680C221340FB60FB68042B07D0082BF4
:1001D00009D0002B33D1264B264A1A6033E0244B3A
:1001E000244A1A602FE0214B5A68F0239B031340E6
:1001F000BB601E4B5A6880235B0213407B60BB6868
:100200009B0C0233BB60194BDB6A0F221340013396
:100210003B607A6880235B029A420AD115483968AC
:1002200000F0A2F8031C1A1CBB685A43104B1A605A
:1002300009E0BB68104A5A430D4B1A6003E00C4BAF
:100240000C4A1A60C046094B5B68F02213401B0938
:100250000A4AD35CDBB2FB60054B1A68FB68DA40E4
:10026000034B1A60BD4604B080BDC046001002407A
:100270000000002000127A0000093D000400002068
:1002800080B500AF1F4B1F4AD26902210A43DA61D1
:100290001C4B1C4A5269802109030A435A61194BBD
:1002A000184A5269802189020A435A61164B164A3C
:1002B0001268802149020A431A60134B124A1268DD
:1002C0008021C9020A431A60104B114A9A620F4BEF
:1002D000FA229200DA620D4B01221A600B4B1B6965
:1002E000012213400CD0094B084A126901218A43AC
:1002F0001A61054B044A5269802149004A405A61FB
:10030000ECE7C0460010024000080048000400402E
:100310003F1F00000D488546002103E00C4B5B5851
:10032000435004310B480C4B42189A42F6D30B4A07
:1003300002E0002313600432094B9A42F9D3FFF71D
:10034000EFFE00F0A3F8FFF79BFFFEE70020002080
:100350002406000800000020500400205004002063
:100360006C040020FEE70000002243088B4274D397
:1003700003098B425FD3030A8B4244D3030B8B42A6
:1003800028D3030C8B420DD3FF22090212BA030CAF
:100390008B4202D31212090265D0030B8B4219D390
:1003A00000E0090AC30B8B4201D3CB03C01A5241B0
:1003B000830B8B4201D38B03C01A5241430B8B42F8
:1003C00001D34B03C01A5241030B8B4201D30B03E1
:1003D000C01A5241C30A8B4201D3CB02C01A524108
:1003E000830A8B4201D38B02C01A5241430A8B42CB
:1003F00001D34B02C01A5241030A8B4201D30B02B4
:10040000C01A5241CDD2C3098B4201D3CB01C01ACD
:10041000524183098B4201D38B01C01A52414309D7
:100420008B4201D34B01C01A524103098B4201D3C5
:100430000B01C01A5241C3088B4201D3CB00C01A32
:10044000524183088B4201D38B00C01A52414308AA
:100450008B4201D34B00C01A5241411A00D20146CF
:10046000524110467047FFE701B5002000F00CF83C
:1004700002BDC0460029F7D003B5FFF775FF0EBCDB
:100480004243891A1847C0467047C04670B50D4EA2
:100490000D4D0024AD1BAD1005D0A300F358013461
:1004A0009847A542F9D100F0ADF8084E084D002458
:1004B000AD1BAD1005D0A300F35801349847A542F9
:1004C000F9D170BD40040020400400204004002009
:1004D0004804002008B5034B002B02D0024800F06E
:1004E00005F808BD00000000FD04000808B5011C67
:1004F00000220020002300F01BF808BD38B5094B8E
:10050000094CE41AA41009D0084AA518AD00ED184A
:100510002B68013C9847043D002CF9D100F078F895
:1005200038BDC046480400204C040020FFFFFF3FB8
:10053000F8B544465F4656464D469B462F4BF0B4B1
:100540001C68A4235B00051CE0580E1C9046002884
:100550004BD043681F2B0DDC5C1C002D21D10233D6
:100560009B0044601E5000203CBC90469946A24629
:10057000AB46F8BD224B002B3CD0C820400000E029
:1005800000BF002836D0A42200235200A1584360A7
:100590000160A05040328350043283500124002D6A
:1005A000DDD09A0091468144424688214F467A50D8
:1005B000C4225200904680444246873999401268CE
:1005C0008A460A439446424661461160842249465F
:1005D0005F4652008F50022DC1D1021C55468D320C
:1005E000FF3211680D431560B9E7201C4D30FF3014
:1005F000E050AEE701204042B6E7C04620060008C2
:1006000000000000F8B5C046F8BC08BC9E46704724
:10061000F8B5C046F8BC08BC9E46704743000000D1
:04062000180000209E
:1006240000127A0000000000000000000102030430
:100634000607080900000000000000000403002071
:100644006C030020D4030020000000000000000020
:100654000000000000000000000000000000000096
:100664000000000000000000000000001C0600085C
:100674000000000000000000000000000000000076
:100684000000000000000000000000000000000066
:100694000000000000000000000000000000000056
:1006A4000000000000000000000000000000000046
:1006B4000000000000000000000000000000000036
:1006C4000000000000000000000000000000000026
:1006D4000000000000000000000000000000000016
:1006E40001000000000000000E33CDAB34126DE6B3
:1006F400ECDE05000B00000000000000000000001C
:1007040000000000000000000000000000000000E5
:1007140000000000000000000000000000000000D5
:1007240000000000000000000000000000000000C5
:1007340000000000000000000000000000000000B5
:100A6400D5040008E9000008C100000800000000E7
:0400000508000000EF
:00000001FF
